:020000040000FA
:060000000A128A11E12F33
:100A16000034033407340E341D3419341E340F34B5
:100A26007E088A007F0882000A128A1113250A129C
:100A36008A118000840A04087D0603190034FF0A1F
:100A46000319FE0A172D831203130910F401F50189
:100A56008914F401F5012F2D0915F401F501080893
:100A66008039F000F1017008F2007108F3000911F5
:100A7600F401F50172087304031D422D432D2F2D39
:100A860089100F3083160313880020308312031356
:100A960088000915F401F5010911F401F501FF308B
:100AA6008316031388000800FA007708F80002305E
:100AB6000310F80DFF3E031D5B2D0310780D403E1D
:100AC6000A128A11C1250A128A11F901083079021F
:100AD600031C6E2D6F2D712D882D882D79087A07B0
:100AE600F80078088400831300080A128A110A267F
:100AF6000A128A110130F8007808F90708307902DD
:100B0600031C862D872D712D882D08001C34183462
:100B1600103400340034003400340034013403341B
:100B26001F3407340E341C34183410340034163491
:100B36001F341C340E3407340334013407340334B1
:100B460001340034003400340034003400341834E6
:100B56001E341E34173403340734173400341F345C
:100B66001F340634033400341F341F3400341F345A
:100B76001F341834103410341F341F34F400831219
:100B860003130910F501F6018914F501F601CB2DC1
:100B96000915F501F60108088039F000F101700821
:100BA600F2007108F3000911F501F6010915F501C6
:100BB600F6010911F501F60172087304031DE42D0F
:100BC600E52DCB2D89100F3083160313880074088A
:100BD6008312031388000915F501F6010911F501C1
:100BE600F6017408F00003300310F00DFF3E031DFC
:100BF600F72D0310700D88000915F501F60109118E
:100C0600F501F601FF308316031388000800F4008F
:100C1600831203130910F501F6018914F501F60193
:100C2600142E0915F501F60108088039F000F101C6
:100C36007008F2007108F3000911F501F6010915B3
:100C4600F501F6010911F501F60172087304031D99
:100C56002D2E2E2E142E091489100F3083160313F1
:100C6600880074088312031388000915F501F6013C
:100C76000911F501F6017408F00003300310F00DB8
:100C8600FF3E031D412E0310700D88000915F50166
:100C9600F6010911F501F601FF30831603138800EA
:100CA600080024308400643083120313A000040873
:100CB600A1000830A2002008840083130008A300C6
:100CC600A00A2108840023088000A10AA20B5E2E38
:100CD6002C308400D030A0000408A1000830A20007
:100CE6002008840083130008A300A00A21088400BA
:100CF60023088000A10AA20B732E34308400C8306A
:100D0600A0000408A1000830A20020088400831374
:100D16000008A300A00A2108840023088000A10A75
:100D2600A20B882E3C308400C030A0000408A1002D
:100D36000830A2002008840083130008A300A00A3C
:100D46002108840023088000A10AA20B9D2E4430AE
:100D56008400B830A0000408A1000830A2002008D2
:100D6600840083130008A300A00A21088400230836
:100D76008000A10AA20BB22E4C308400B030A00035
:100D86000408A1000830A20020088400831300088C
:100D9600A300A00A2108840023088000A10AA20B50
:100DA600C72E54308400A830A0000408A1000830E3
:100DB600A2002008840083130008A300A00A2108CB
:100DC600840023088000A10AA20BDC2E5C3084007C
:100DD600A030A0000408A1000830A200200884006A
:100DE60083130008A300A00A2108840023088000BA
:100DF600A10AA20BF12EFF30831603138800F830E8
:100E060089008316031788010A128A1126250A12F9
:100E16008A110C300A128A11C1250A128A11283049
:100E26000A128A11C1250A128A1101300A128A1180
:100E3600C1250A128A11F70124300A128A11572590
:100E46000A128A11F701F70A2C300A128A1157255D
:100E56000A128A11023083120313A0002008F70039
:100E660034300A128A1157250A128A110330831266
:100E76000313A0002008F7003C300A128A115725F8
:100E86000A128A11043083120313A0002008F70007
:100E960044300A128A1157250A128A110530831224
:100EA6000313A0002008F7004C300A128A115725B8
:100EB6000A128A11063083120313A0002008F700D5
:100EC60054300A128A1157250A128A1107308312E2
:100ED6000313A0002008F7005C300A128A11572578
:100EE6000A128A1101300A128A11C1250A128A11C0
:100EF6007C2F86300A128A11C1250A128A11003007
:100F06000A128A110A260A128A1187300A128A11CF
:100F1600C1250A128A1101300A128A110A260A12FA
:100F26008A1188300A128A11C1250A128A110230E2
:100F36000A128A110A260A128A1189300A128A119D
:100F4600C1250A128A1103300A128A110A260A12C8
:100F56008A11C6300A128A11C1250A128A11043072
:100F66000A128A110A260A128A11C7300A128A112F
:100F7600C1250A128A1105300A128A110A260A1296
:100F86008A11C8300A128A11C1250A128A1106303E
:100F96000A128A110A260A128A11C9300A128A11FD
:100FA600C1250A128A1107300A128A110A260A1264
:100FB6008A117C2F7C2F0A128A1100288313D830BD
:100FC600FD000530FE008930FF00A03084000A12C3
:100FD6008A1117250A128A116C30FD000530FE00B1
:100FE6000B30FF00643084000A128A1117250A129A
:0A0FF6008A1183010A128A11542E99
:02400E00E5F3D8
:00000001FF
