:020000040000FA
:060000000A128A11EE2F26
:100C16007E088A007F0882000A128A110B260A12B1
:100C26008A118000840A04087D0603190034FF0A2D
:100C36000319FE0A0F2E413474347434653420349B
:100C460054347534203463346F346E3465346A3406
:100C5600693474346F340034543465342034613468
:100C66006D346F3420346D347534633468346F34C6
:100C760020343C34333400343D34003420340034E2
:100C8600831203130910F401F5018914F401F50127
:100C96004C2E0915F401F50108088039F000F10120
:100CA6007008F2007108F3000911F401F5017208E9
:100CB6007304031D5F2E602E4C2E89100F30831691
:100CC6000313880020308312031388000915F401EA
:100CD600F5010911F401F501FF30831603138800AD
:100CE6000800831203130910F601F7018914F601AF
:100CF600F7017D2E0915F601F70108088039F20083
:100D0600F3017208F4007308F5000911F601F70102
:100D16000915F601F7010911F601F70174087504C2
:100D2600031D962E972E7D2E89100F3083160313E2
:100D3600880070088312031388000915F601F7016D
:100D46000911F601F7017008F20003300310F20DE5
:100D5600FF3E031DA92E0310720D88000915F6012A
:100D6600F7010911F601F701FF3083160313880016
:100D76000800831203130910F601F7018914F6011E
:100D8600F701C52E0915F601F70108088039F200AA
:100D9600F3017208F4007308F5000911F601F70172
:100DA6000915F601F7010911F601F7017408750432
:100DB600031DDE2EDF2EC52E0914F601F70189105C
:100DC6000F308316031388007008831203138800FC
:100DD6000915F601F7010911F601F7017008F2008D
:100DE60003300310F20DFF3E031DF42E0310720DA7
:100DF60088000915F601F7010911F601F701FF3020
:100E06008316031388000800313084005830F80038
:100E16000408F9001030FA007808840083130008EB
:100E2600FB00F80A790884007B088000F90AFA0BAF
:100E36000F2F203084004730F8000408F9001130E5
:100E4600FA007808840083130008FB00F80A790882
:100E560084007B088000F90AFA0B242F83120313FF
:100E66006B08C2006A08C1006908C4006808C300AC
:100E7600F8308316031389008316031788010A12B4
:100E86008A1143260A128A110C30F0000030F10054
:100E96000A128A1174260A128A112830F0000030CC
:100EA600F1000A128A1174260A128A110130F00022
:100EB6000030F1000A128A1174260A128A11803053
:100EC600F0000030F1000A128A1174260A128A1103
:100ED60083120313C501C6014608803AFF0080301D
:100EE6007F02031D782F0F304502031C7B2F7C2FBA
:100EF6007E2FA62FA62F831203134508313E8400AA
:100F060083130008F800F9017808F0007908F10069
:100F16000A128A11BC260A128A110130831203139F
:100F2600C5070318C60A0030C6074608803AFF0000
:100F360080307F02031DA12F0F304502031CA42F12
:100F4600A52F7E2FA62FC030F0000030F1000A1228
:100F56008A1174260A128A1183120313C501C60167
:100F66004608803AFF0080307F02031DBC2F1030F8
:100F76004502031CBF2FC02FC22FEA2FEA2F831270
:100F860003134508203E840083130008F800F90186
:100F96007808F0007908F1000A128A11BC260A12B4
:100FA6008A11013083120313C5070318C60A0030DD
:100FB600C6074608803AFF0080307F02031DE52FF2
:100FC60010304502031CE82FE92FC22FEA2FEA2F23
:100FD6000A128A11002883136C30FD000630FE00C9
:100FE6001E30FF00473084000A128A110F260A12AB
:0A0FF6008A1183010A128A11072FE5
:02400E00E4F3D9
:00000001FF
