:020000040000FA
:060000000A128A11EE2F26
:100F440048346F346C34613420346D3475346E3409
:100F540064346F340A3400347E088A007F088200C7
:100F64000A128A11AE270A128A118000840A040820
:100F74007D0603190034FF0A0319FE0AB22F2C3030
:100F840084002030F0000408F1000C30F2007008F6
:100F9400840083130008F300F00A710884007308C6
:100FA4008000F10AF20BC92F19308316031399003C
:100FB400981618158312031398171816E22FE22FA8
:100FC4000C1EE52FE62FE22FE72F55309900E22F74
:100FD400E22F0A128A11002883132C30FD000730F7
:100FE400FE00A230FF00203084000A128A11B227CA
:0C0FF4000A128A1183010A128A11C12F0F
:02400E00F5FFBC
:00000001FF
