:020000040000FA
:060000000A128A11FC2F18
:100D9C0083160313011181140110720883120313BB
:100DAC008100F501F601F42EE92E77087804031D75
:100DBC00E02EE12EE52E831203138715E92E831204
:100DCC0003138711E92E0B1DEC2EED2EDB2EEE2ED0
:100DDC000130F5070318F60A0030F6077608803A5A
:100DEC00F4007108803A7402031DFE2E700875021F
:100DFC00031C012F022FE92E032F720883120313F9
:100E0C0081000B1177087804031D0D2F0E2F132F63
:100E1C000130F7000030F800162FF701F801162FFB
:100E2C0008000230831603178900FF308316031362
:100E3C008600FF3088008113F7308700FF30950063
:100E4C00272F831603138112011681117F2F0E3069
:100E5C00F0000230F1001230F2000030F3000A1200
:100E6C008A11CE260A128A11DF2FF430F0000130DD
:100E7C00F1008230F2000030F3000A128A11CE2603
:100E8C000A128A11DF2FB330F0000130F1007030FC
:100E9C00F2000030F3000A128A11CE260A128A11CF
:100EAC00DF2F8130F0000130F1005D30F2000030B6
:100EBC00F3000A128A11CE260A128A11DF2F59303A
:100ECC00F0000130F1004A30F2000030F3000A1259
:100EDC008A11CE260A128A11DF2F0030F000F100A1
:100EEC000030F200F3000A128A11CE260A128A117F
:100EFC00DF2F831203130608F900FA017A08003A6F
:100F0C000319892F732F7908003A0319652F013AB9
:100F1C000319572F033A0319492F0A3A03193B2F88
:100F2C00183A03192D2F732FDF2F4D30F00001309D
:100F3C00F100A230F2000030F3000A128A11CE2622
:100F4C000A128A11272F2630F0000130F1002B30C5
:100F5C00F2000030F3000A128A11CE260A128A110E
:100F6C00272F0730F0000130F1001230F200003072
:100F7C00F3000A128A11CE260A128A11272F813009
:100F8C00F0000130F1005D30F2000030F3000A1285
:100F9C008A11CE260A128A11272F0030F000F10098
:100FAC000030F200F3000A128A11CE260A128A11BE
:100FBC00272F831203130808F900FA017A08003A64
:100FCC000319E92FD32F7908013A0319C52F033AD6
:100FDC000319B72F223A0319A92F603A03199B2F33
:100FEC00D32F272F272F0A128A11002883010A12C8
:040FFC008A11172F10
:02400E00F2FFBF
:00000001FF
