:020000040000FA
:060000000A128A11FC2F18
:100A0400F001F101F201F3018316031789120912AF
:100A1400891109110910FF30831603138600FF3072
:100A240088008113F7308700FF309500192D831655
:100A3400031381120116811183120313861A232DC5
:100A4400242D7A2D83160313011181140110123001
:100A5400831203138100F201F3017308803AFF004B
:100A640082307F02031D382D0E307202031C3B2D91
:100A74003C2D4D2D192D192D4D2D70087104031D7C
:100A8400442D452D492D8312031387154D2D8312B3
:100A9400031387114D2D0B1D502D512D3F2D522D1C
:100AA40012308312031381000B1170087104031DAB
:100AB4005C2D5D2D622D0130F0000030F100652DBC
:100AC400F001F101652D0130F2070318F30A00303B
:100AD400F3077308803AFF0082307F02031D742DF0
:100AE4000E307202031C772D782D4D2D192D192DE2
:100AF400061A7D2D7E2DD42D831603130111811426
:100B040001148230831203138100F201F30173088C
:100B1400803AFF0081307F02031D922DF43072026F
:100B2400031C952D962DA72D192D192DA72D700871
:100B34007104031D9E2D9F2DA32D8312031387156E
:100B4400A72D831203138711A72D0B1DAA2DAB2DDF
:100B5400992DAC2D82308312031381000B11700880
:100B64007104031DB62DB72DBC2D0130F0000030EB
:100B7400F100BF2DF001F101BF2D0130F207031880
:100B8400F30A0030F3077308803AFF0081307F02D4
:100B9400031DCE2DF4307202031CD12DD22DA72DAE
:100BA400192D192D0619D72DD82D2E2E8316031382
:100BB4000111811401147030831203138100F201B6
:100BC400F3017308803AFF0081307F02031DEC2D8E
:100BD400B3307202031CEF2DF02D012E192D192DA7
:100BE400012E70087104031DF82DF92DFD2D8312BB
:100BF40003138715012E831203138711012E0B1D76
:100C0400042E052EF32D062E70308312031381005B
:100C14000B1170087104031D102E112E162E0130B5
:100C2400F0000030F100192EF001F101192E01300D
:100C3400F2070318F30A0030F3077308803AFF0041
:100C440081307F02031D282EB3307202031C2B2E29
:100C54002C2E012E192D192D8618312E322E882E68
:100C6400831603130111811401145D3083120313DD
:100C74008100F201F3017308803AFF0081307F02A2
:100C8400031D462E81307202031C492E4A2E5B2E10
:100C9400192D192D5B2E70087104031D522E532E2D
:100CA400572E8312031387155B2E831203138711A8
:100CB4005B2E0B1D5E2E5F2E4D2E602E5D3083123B
:100CC400031381000B1170087104031D6A2E6B2E2F
:100CD400702E0130F0000030F100732EF001F101AC
:100CE400732E0130F2070318F30A0030F307730878
:100CF400803AFF0081307F02031D822E8130720210
:100D0400031C852E862E5B2E192D192D06188B2E6D
:100D14008C2EE22E831603130111811401144A3020
:100D2400831203138100F201F3017308803AFF0078
:100D340081307F02031DA02E59307202031CA32EA2
:100D4400A42EB52E192D192DB52E70087104031D6E
:100D5400AC2EAD2EB12E831203138715B52E83123C
:100D640003138711B52E0B1DB82EB92EA72EBA2E3C
:100D74004A308312031381000B1170087104031DA0
:100D8400C42EC52ECA2E0130F0000030F100CD2E45
:100D9400F001F101CD2E0130F2070318F30A0030FF
:100DA400F3077308803AFF0081307F02031DDC2EB5
:100DB40059307202031CDF2EE02EB52E192D192D89
:100DC400881BE52EE62E3C2F831603130115811094
:100DD4000110A230831203138100F201F30173089E
:100DE400803AFF0081307F02031DFA2E4D307202DB
:100DF400031CFD2EFE2E0F2F192D192D0F2F7008F9
:100E04007104031D062F072F0B2F8312031387155D
:100E14000F2F8312031387110F2F0B1D122F132F64
:100E2400012F142FA2308312031381000B117008B9
:100E34007104031D1E2F1F2F242F0130F0000030DA
:100E4400F100272FF001F101272F0130F2070318D9
:100E5400F30A0030F3077308803AFF0081307F0201
:100E6400031D362F4D307202031C392F3A2F0F2FDA
:100E7400192D192D081B3F2F402F962F831603136E
:100E84000111811401142B30831203138100F20128
:100E9400F3017308803AFF0081307F02031D542F51
:100EA40026307202031C572F582F692F192D192D24
:100EB400692F70087104031D602F612F652F831241
:100EC40003138715692F831203138711692F0B1DD1
:100ED4006C2F6D2F5B2F6E2F2B3083120313810029
:100EE4000B1170087104031D782F792F7E2F0130A8
:100EF400F0000030F100812FF001F101812F013069
:100F0400F2070318F30A0030F3077308803AFF006E
:100F140081307F02031D902F26307202031C932F11
:100F2400942F692F192D192D881A992F9A2F192D5D
:100F34008316031301118114011412308312031355
:100F44008100F201F3017308803AFF0081307F02CF
:100F5400031DAE2F07307202031CB12FB22FC32F13
:100F6400192D192DC32F70087104031DBA2FBB2F1F
:100F7400BF2F831203138715C32F83120313871103
:100F8400C32F0B1DC62FC72FB52FC82F12308312A6
:100F9400031381000B1170087104031DD22FD32F8A
:100FA400D82F0130F0000030F100DB2FF001F10107
:100FB400DB2F0130F2070318F30A0030F30773083C
:100FC400803AFF0081307F02031DEA2F073072024E
:100FD400031CED2FEE2FC32F192D192D192D192DAB
:100FE400192D192D192D192D192D192D192D0A12F7
:0C0FF4008A11002883010A128A11022DC4
:02400E00F1FFC0
:00000001FF
