:020000040000FA
:060000000A128A11EE2F26
:100ED4007E088A007F0882000A128A116A270A1291
:100EE4008A118000840A04087D0603190034FF0A6D
:100EF4000319FE0A6E2F48346F346C346134203485
:100F04006D3475346E3464346F342E342034593473
:100F1400613420346D34653420347134753465346F
:100F240064346F3420346C3461342034703472345B
:100F34006134633474346934633461342E3420345A
:100F44003A34333420343C3433340A3400342030DB
:100F54008400A030F0000408F1002C30F200700886
:100F6400840083130008F300F00A710884007308F6
:100F74008000F10AF20BB12F193083160313990084
:100F8400981618158312031398171816C92FCC0135
:100F94002A304C02031CCF2FD02FD32FC92FC92F97
:100FA400D32F0C1ED62FD72FD32FD82F4C08203E4B
:100FB40084008313000899000130F0007008CC0706
:100FC4002A304C02031CE72FE82FD32FC92FC92F37
:100FD400C92F0A128A1100288313CC30FD00073070
:100FE400FE007D30FF00A03084000A128A116E27B3
:0C0FF4000A128A1183010A128A11A92F27
:02400E00F5FFBC
:00000001FF
