:020000040000FA
:060000000A128A11FC2F18
:100F0600F300F201862F731C892F8A2F8F2F70080A
:100F1600F1007108F2078F2F0310F00D0310F30C88
:100F26007308031D972F982F862F992F72089B2FD2
:100F360008001930831603139900981618158312A2
:100F4600031398171816FF30831603138500013014
:100F5600831603178800831203131F083F3940388E
:100F66009F001F08C3390C389F001F1483160313F4
:100F76009F179F121F120630F6001330F500AD3092
:100F8600F400F40BC42FF50BC42FF60BC42FCB2F94
:100F9600831203139F14D02F0000831203130C1F18
:100FA600D52FD62FCF2FD72FF701831603131E0861
:100FB600F4007408F707F7017708F4007408F000E6
:100FC60064300A128A1183270A128A11F5007508FD
:100FD600F700ED2F831203130C1EF22FF32FED2FC4
:100FE600F42F770899000C13BE2FBE2F0A128A1110
:0A0FF600002883010A128A119C2FC3
:02400E00F5FFBC
:00000001FF
