:020000040000FA
:060000000A128A11FC2F18
:100F72001930831603139900981618158312031358
:100F820098171816831603138515831203131F0867
:100F92003F3940389F001F08C3390C389F001F1487
:100FA200831603139F139F121F120630F200133091
:100FB200F100AD30F000F00BDC2FF10BDC2FF20B67
:100FC200DC2FE32F831203139F14E82F00008312F8
:100FD20003130C1FED2FEE2FE72FF02FF02F0C1E17
:100FE200F32FF42FF02FF52F1E089900D62FD62FAE
:0E0FF2000A128A11002883010A128A11B92FEF
:02400E00E5F3D8
:00000001FF
