:020000040000FA
:100000000A128A11FC2F7308720471047004031918
:100010000A280B280E288030F3060E280F28080027
:10002000831203135108D5005208D6005308D70095
:100030005408D8000310570D580DD9005908DB009B
:100040005B08031D242825282F280030D400003009
:10005000D3000030D2000030D100AB28AB285108CB
:10006000D5005208D6005308D7005408D8001F30D6
:100070000310D80CD70CD60CD50CFF3E031D382826
:100080005508D9005908DA00D317FF30D105FF30E1
:10009000D205FF30D3050030D4059630DB02DB1FDC
:1000A0005228532878285B08803A973E031859282D
:1000B0005A2865280030D4000030D3000030D20028
:1000C0000030D100AB28AB28652801300310D40CD8
:1000D000D30CD20CD10CFF3E031D66280130D50095
:1000E0005508DB07031D7528762865289B289B2863
:1000F00020305B02031C7D287E2894280030D40029
:100100000030D3000030D2000030D100AB28AB2843
:1001100094280130D5000310D10DD20DD30DD40D8C
:10012000D50B8B280130DB025B08031D982899282A
:1001300089289B289B285A0803199F28A028AB28A8
:10014000D109D209D309D409D10A0319D20A031952
:10015000D30A0319D40A08008316031349084A0472
:100160000319B328B428C22835084A02031DBA2847
:10017000340849020318BD28BE28C2284A08B50021
:100180004908B40044083502031DC8284308340256
:100190000318CB28CC28D3283408C3023508031C05
:1001A000C403C402DE28C301C401DE28DE282030D7
:1001B0000A128A150D200A128A11DE28FF308316D2
:1001C0000313C3070318C40AFF30C407430A031DFF
:1001D000ED28440A031DED28EE28D7280B290B290A
:1001E000330883120313FF008316031332088400BD
:1001F000831203130A168A1500200A128A110A12A2
:100200008A150D200A128A11013083160313B207D2
:100210000318B30A0B290130B4020030031CB503E4
:10022000B502340A031D1829350A031D1829192996
:10023000F028E02FE02FE02F402901308316031330
:10024000BC07FF303C0784000A168A150A200A12F0
:100250008A11CB00A800A9012908003A0319312905
:10026000E02F2808003A0319F82F663A0A128A1577
:100270000319DE280A128A11153A0319F92FE02F03
:1002800000303A05A80007303B05A90028082904DA
:1002900003194B294C29172F3B1E4F29502955294B
:1002A0000630C9000030CA00552931088400831384
:1002B0000008C500840A0008C600840A0008C700B8
:1002C000840A0008C8000430A8002808B1074808BC
:1002D000F3004708F2004608F1004508F00000303E
:1002E000F7000030F6000030F5000030F4000A1688
:1002F0008A155C260A128A1103187F2980299E29F3
:10030000831603134808F3004708F2004608F1007B
:100310004508F0000A128A1103200A128A11730894
:1003200083160313C8007208C7007108C60070085E
:10033000C5000330BA040030BB049E2983160313A2
:10034000C101C2014808F3004708F2004608F10065
:100350004508F0000030F7000030F6000030F500EE
:100360000030F4000A168A15CE230A128A110318E7
:10037000BA29BB29B72A831603134508A8004608E3
:10038000A9004708AA004808AB0003102A0D2B0D4E
:10039000823EC100FF3003180030C200FF30C107A9
:1003A0000318C20AFF30C2070330F0000030F1002A
:1003B0004208F3004108F2000A168A1577220A1251
:1003C0008A11710883160313C2007008C1000A3035
:1003D000F7000030F8004208FA004108F9000A1658
:1003E0008A111E200A128A11780883160313C2008C
:1003F0007708C100C21FFD29FE29052AFF30C10769
:100400000318C20AFF30C207052A4103FF3A0A1245
:100410008A151C210A128A118312031341088316BC
:100420000313C00083120313400883160313BF0095
:10043000831203133F0883160313BE0083120313B2
:100440003E0883160313BD00480883120313A70058
:1004500083160313470883120313A600831603139E
:10046000460883120313A50083160313450883125D
:100470000313A40083160313400883120313AB0075
:10048000831603133F0883120313AA008316031372
:100490003E0883120313A900831603133D08831239
:1004A0000313A8000A128A158B240A128A118312D8
:1004B0000313270883160313C000831203132608AF
:1004C00083160313BF008312031325088316031337
:1004D000BE0083120313240883160313BD004008D3
:1004E000F3003F08F2003E08F1003D08F0003F3005
:1004F000F7008030F6000030F5000030F4000A16F6
:100500008A155C260A128A110318872A882A912ADA
:10051000FF3083160313C1070318C20AFF30C20756
:10052000B72A831603134008F3003F08F2003E0881
:10053000F1003D08F0004130F7002030F6000030B7
:10054000F5000030F4000A168A155C260A128A119A
:10055000031CAB2AAC2AB72A013083160313C10748
:100560000318C20A0030C207B72AB72AB72A83166F
:1005700003134A08803AFF0080307F02031DC22A1D
:100580000D3049020318C52AC62A0E2B8316031301
:1005900049080A168A1131230A128A118312031399
:1005A0004108D5004008D4003F08D3003E08D200DF
:1005B00083160313480883120313D9008316031309
:1005C000470883120313D8008316031346088312C7
:1005D0000313D70083160313450883120313D600B1
:1005E0000A168A1144250A128A1183120313550828
:1005F00083160313C80083120313540883160313CE
:10060000C70083120313530883160313C600831213
:100610000313520883160313C5000E2B831603130E
:100620004208803AFF0080307F02031D192B0A30F8
:10063000410203181C2B1D2B6F2B83160313480834
:10064000F3004708F2004608F1004508F0000030CA
:10065000F7000030F6000030F5000030F4000A1614
:100660008A15CE230A128A110318372B382B032C34
:1006700083160313480883120313D400831603134D
:10068000470883120313D30083160313460883120B
:100690000313D20083160313450883120313D100FA
:1006A0000A128A1110200A128A11831203135408A5
:1006B000530452045104031D5E2B5F2B032C83163D
:1006C00003134208803AFF0080307F02031D6A2B2B
:1006D00002304102031C6D2B6E2B032C6F2B8316F3
:1006E00003134008F3003F08F2003E08F1003D0804
:1006F000F0004030F7008930F6007030F5005F30D0
:10070000F4000A168A155C260A128A110318892B2E
:100710008A2B932BF73083160313C1070318C20AE1
:10072000FF30C2079C2BF83083160313C107031850
:10073000C20AFF30C2079C2B41080A128A151C21ED
:100740000A128A1183120313410883160313C0008F
:1007500083120313400883160313BF00831203138D
:100760003F0883160313BE00831203133E0883164B
:100770000313BD004808F3004708F2004608F100E3
:100780004508F0004008F7003F08F6003E08F50075
:100790003D08F4000A168A1191200A128A11730882
:1007A00083160313B9007208B8007108B700700807
:1007B000B600FA2B4808F3004708F2004608F1009B
:1007C0004508F0004008F7003F08F6003E08F50035
:1007D0003D08F4000A168A151F270A128A117308A9
:1007E00083160313B9007208B8007108B7007008C7
:1007F000B600FA2B0030C8000030C7000030C60039
:100800000030C5006A2C83160313480883120313B3
:10081000D40083160313470883120313D3008316EF
:100820000313460883120313D200831603134508EB
:1008300083120313D1000A128A1110200A128A119E
:1008400083120313540883160313B900831203138E
:10085000530883160313B800831203135208831638
:100860000313B70083120313510883160313B60052
:100870003908F3003808F2003708F1003608F000B4
:1008800000300A168A159A250A128A1173088316EF
:100890000313A3007208A2007108A1007008A00051
:1008A0004808A7004708A6004608A5004508A40078
:1008B0000A168A151E240A128A11831603132308A6
:1008C000C8002208C7002108C6002008C500C101D1
:1008D000C2016A2CCB01CB0A0A304B06031D712CD6
:1008E000722C742CB72CB72C4B08A80001300310C5
:1008F000A80DFF3E031D772C0310280D693E8400D0
:100900000A168A150A200A128A11A9000A168A15DF
:100910000A200A128A11AA000A168A150A200A1247
:100920008A11AB000A168A150A200A128A11AC0035
:100930002C083902031DA62C2B083802031DA62CF7
:100940002A083702031DA62C290836020318A92CF1
:10095000AA2CAC2CB72CB72C0130A8002808CB0748
:100960000A304B06031DB52CB62C742CB72C4B0843
:100970004907A8004A0803184A0AA900410828079D
:10098000AA0042080318420A2907AB002A08C3023A
:100990002B08031CC403C40249084A040319D12CC0
:1009A000D22CD92CFF30C3070318C40AFF30C40768
:1009B000D92C03303A05A80000303B05A9002808CF
:1009C00029040319E42CE52CFC2CFF30C307031881
:1009D000C40AFF30C407FC2CFC2C20300A128A15F4
:1009E0000D200A128A11FF3083160313C307031860
:1009F000C40AFF30C407FC2C4408803AFF00803052
:100A00007F02031D052D013043020318082D092D17
:100A1000ED2C0A2D0330831603133A05A80000308D
:100A20003B05A900280829040319172D182D842D2A
:100A30002D300A128A150D200A128A11842D842D58
:100A4000831603134B08A80001300310A80DFF3EC6
:100A5000031D252D0310280D693E84000A168A15F2
:100A60000A200A128A11F0000A168A150A200A12B0
:100A70008A11F1000A168A150A200A128A11F20058
:100A80000A168A150A200A128A11F3003908F7009B
:100A90003808F6003708F5003608F4000A168A15FB
:100AA0002D250A128A11730883160313C0007208D9
:100AB000BF007108BE007008BD000030F3000030B8
:100AC000F2000030F1000A30F0004008F7003F0863
:100AD000F6003E08F5003D08F4000A168A156F245A
:100AE0000A128A11730883160313C0007208BF002C
:100AF0007108BE007008BD003D08303E0A128A151C
:100B00000D200A128A11842D013083160313CB02A3
:100B10004B0A031D8C2D8D2D202D9E2D9E2D3030AA
:100B20000A128A150D200A128A11FF308316031348
:100B3000C1070318C20AFF30C2079E2D4208803A3F
:100B4000FF0080307F02031DA72D013041020318F2
:100B5000AA2DAB2D8F2DAC2D831603134A08803A96
:100B6000FF0080307F02031DB72D09304902031CAE
:100B7000BA2DBB2DC22D083083160313A8002808F8
:100B8000CB00C82D831603134908A8002808CB0002
:100B90004B08A800A9012808C9022908031CCA0398
:100BA000CA024B080319D52DD62DDD2D2E300A1281
:100BB0008A150D200A128A11DD2D831603134B08A6
:100BC0000A128A151C210A128A1183120313410882
:100BD00083160313B0008312031340088316031314
:100BE000AF00831203133F0883160313AE00831272
:100BF00003133E0883160313AD003008831203135A
:100C0000AB00831603132F0883120313AA00831665
:100C100003132E0883120313A900831603132D0850
:100C200083120313A80083160313480883120313C7
:100C3000A70083160313470883120313A600831625
:100C40000313460883120313A500831603134508F4
:100C500083120313A4000A128A158B240A128A1124
:100C6000831203132708D4002608D3002508D200D6
:100C70002408D1000A128A1110200A128A11831244
:100C80000313540883160313B90083120313530884
:100C900083160313B8008312031352088316031339
:100CA000B70083120313510883160313B600F72EFF
:100CB0004B08A80001300310A80DFF3E031D5B2E5A
:100CC0000310280D693E84000A168A150A200A12AC
:100CD0008A11F0000A168A150A200A128A11F100F8
:100CE0000A168A150A200A128A11F2000A168A15B3
:100CF0000A200A128A11F3003908F7003808F600B2
:100D00003708F5003608F4000A168A152D250A1250
:100D10008A11730883160313C0007208BF0071089C
:100D2000BE007008BD000030F3000030F20000305B
:100D3000F1000A30F0004008F7003F08F6003E08D6
:100D4000F5003D08F4000A168A156F240A128A116C
:100D5000730883160313C0007208BF007108BE0039
:100D60007008BD003D08303E0A128A150D200A1297
:100D70008A11831603134B08A80001300310A80D35
:100D8000FF3E031DBE2E0310280D693E84000A1687
:100D90008A150A200A128A11F0000A168A150A20FA
:100DA0000A128A11F1000A168A150A200A128A11FB
:100DB000F2000A168A150A200A128A11F30039086D
:100DC000F7003808F6003708F5003608F4000A1670
:100DD0008A156F240A128A11730883160313B90047
:100DE0007208B8007108B7007008B600F72E01301D
:100DF000CB024B0A031DFD2EFE2E582E0F2F0F2F58
:100E000030300A128A150D200A128A11FF3083161B
:100E10000313C9070318CA0AFF30CA070F2F49086E
:100E20004A04031D142F152F002FE02FE02F49082F
:100E30004A04031D1C2F1D2F2B2F3908380437049B
:100E40003604031D242F252F2B2F0130C90703182B
:100E5000CA0A0030CA074A08803A803C031D322F74
:100E600049084B020318352F362F3D2F83160313E5
:100E70004908A8002808CB00572F831603134A08F7
:100E8000803AA80080302802031D482F4B084902F1
:100E900003184B2F4C2F572F831603134B08A80012
:100EA000A9012808C9002908CA00572F572F8316FF
:100EB00003134308440403195E2F5F2F722F03307E
:100EC0003A05A80000303B05A900280829040319A9
:100ED0006A2F6B2F722FFF30C3070318C40AFF302D
:100EE000C407722F3B1F752F762F932F4A08803A25
:100EF000A8004408803A2802031D802F43084902B5
:100F00000318832F842F8D2F831603134908C302E0
:100F10004A08031CC403C402932F83160313C3019E
:100F2000C401932F932F4408803A803C031D9A2FCD
:100F300043084B0203189D2F9E2FAA2F83160313DD
:100F40004B08A800A9012808C3022908031CC403F0
:100F5000C402AF2F83160313C301C401AF2F43088C
:100F600044040319B42FB52FCC2FB62F20300A120A
:100F70008A150D200A128A11FF3083160313C30746
:100F80000318C40AFF30C40743084404031DC92FD3
:100F9000CA2FB62FCC2FCC2F03303A05A800003033
:100FA0003B05A900280829040319D72FD82FE02FC3
:100FB0002D300A128A150D200A128A11E02FE02F17
:100FC000013083160313BC07FF303C0784000A1668
:100FD0008A150A200A128A11A8002808CB004B089B
:100FE000031DF32FF62F0A128A151828F82FF82F51
:100FF00008000A128A15E22883010A168A11832939
:10101A00080083160313BC006A30A8002808B10030
:10102A000A128A11E02F25304B0603191D281E28A3
:10103A0025284B080A128A150D200A128A15152826
:10104A0083160313C301C401BA01BB013C0884001F
:10105A000A168A150A200A128A150A168A110A20FD
:10106A000A128A15031C3A283B287E288316031382
:10107A00C301C40140280A30F0000030F100831691
:10108A0003134408F3004308F2000A168A1577226C
:10109A000A128A15710883160313C4007008C30064
:1010AA003C0884000A168A150A200A128A15D03EBC
:1010BA00A800FF3003180030A9002808C307031846
:1010CA00C40A2908C4070130A8002808BC073C083C
:1010DA0084000A168A150A200A128A150A168A1123
:1010EA000A200A128A1503187B287C2840287E28A1
:1010FA007E28831603133C0884000A168A150A20E0
:10110A000A128A152E3A031D8B288C28D4283B17DD
:10111A000130A8002808BC07C901CA01C0288316E3
:10112A0003134A08F1004908F0000A30F2000030BF
:10113A00F3000A168A1577220A128A1583160313F0
:10114A003C0884000A168A150A200A128A157007B2
:10115A00A8000030031801307107A9002808D03E02
:10116A00C90029080318013EFF3ECA000130A80041
:10117A002808BC07C0283C0884000A168A150A20D9
:10118A000A128A150A168A110A200A128A150318DF
:10119A00CF28D02894280A128A111D29D02883160C
:1011AA000313C901CA013B16D028D0280A128A1192
:1011BA00F82F3B150A128A1140293108840083133B
:1011CA000008B200840A00088403B3000230A800B1
:1011DA002808B10732083304031DF428F528FA2831
:1011EA009E30B2008030B300FA28B401B501062956
:1011FA00013083160313B4070318B50A0030B50784
:10120A00062934083207840033080318330A831284
:10121A000313FF000A168A1500200A128A15003ADB
:10122A00031D18291929FD280A128A11AC288312CC
:10123A000313D000D01F22292329D82AD009D00A83
:10124A005008803A123E031C2B292C29182A0A30EE
:10125A00F7000030F8005008F200F301F21BF30324
:10126A006430F0000030F1000A168A15CA240A1206
:10127A008A157108FA007008F9000A168A111E20E8
:10128A000A128A15770883120313C2000130031069
:10129A00C20DFF3E031D4C290310420D243E353E6C
:1012AA0084000A168A150A200A128A15C3000A1629
:1012BA008A150A200A128A15C4000A168A150A20F3
:1012CA000A128A15C5000A168A150A200A128A15F0
:1012DA00C6004608A7004508A6004408A50043081A
:1012EA00A4006430F7000030F8005008F900FA0151
:1012FA00F91BFA030A168A111E200A128A157708A0
:10130A0083120313C70001300310C70DFF3E031DEC
:10131A0089290310470D483E353E84000A168A156E
:10132A000A200A128A15C8000A168A150A200A1201
:10133A008A15C9000A168A150A200A128A15CA00CD
:10134A000A168A150A200A128A15CB004B08AB0026
:10135A004A08AA004908A9004808A8000A128A15DA
:10136A008B240A128A15831203132708CF00260832
:10137A00CE002508CD002408CC000A30F000003049
:10138A00F1005008F200F301F21BF3030A168A1562
:10139A00CA240A128A15700883120313C200013084
:1013AA000310C20DFF3E031DD5290310420D353E21
:1013BA0084000A168A150A200A128A15C3000A1618
:1013CA008A150A200A128A15C4000A168A150A20E2
:1013DA000A128A15C5000A168A150A200A128A15DF
:1013EA00C6004608A7004508A6004408A500430809
:1013FA00A4004F08AB004E08AA004D08A9004C08EB
:10140A00A8000A128A158B240A128A15831203135A
:10141A002708C1002608C0002508BF002408BE000E
:10142A008A2C8A2CAA2A5008803A753E031C1E2A46
:10143A001F2AAA2A0A30F0000030F1005008F200F0
:10144A00F301F21BF3030A168A15CA240A128A1533
:10145A00700883120313C20001300310C20DFF3E4D
:10146A00031D322A0310420D353E84000A168A15DE
:10147A000A200A128A15C3000A168A150A200A12B5
:10148A008A15C4000A168A150A200A128A15C50086
:10149A000A168A150A200A128A15C6004608A700E3
:1014AA004508A6004408A5004308A4000A30F7002E
:1014BA000030F8005008F900FA01F91BFA030A167D
:1014CA008A111E200A128A15770883120313C7008D
:1014DA0001300310C70DFF3E031D6E2A0310470D8E
:1014EA00243E353E84000A168A150A200A128A15F5
:1014FA00C8000A168A150A200A128A15C9000A168D
:10150A008A150A200A128A15CA000A168A150A209A
:10151A000A128A15CB004B08AB004A08AA004908F0
:10152A00A9004808A8000A128A158B240A128A15EB
:10153A00831203132708C1002608C0002508BF002C
:10154A002408BE008A2C8A2CAA2A5008C20001301C
:10155A000310C20DFF3E031DAD2A0310420D353E96
:10156A0084000A168A150A200A128A15C3000A1666
:10157A008A150A200A128A15C4000A168A150A2030
:10158A000A128A15C5000A168A150A200A128A152D
:10159A00C6004608C1004508C0004408BF00430809
:1015AA00BE008A2C8A2C5008803A123E031CDE2A7E
:1015BA00DF2ACB2B0A30F7000030F8005008F2007F
:1015CA00F301F21BF3036430F0000030F1000A1655
:1015DA008A15CA240A128A157108FA007008F900D5
:1015EA000A168A111E200A128A1577088312031313
:1015FA00C20001300310C20DFF3E031DFF2A031073
:10160A00420D243E013E84000A168A150A200A1257
:10161A008A15C3000A168A150A200A128A15C400F6
:10162A000A168A150A200A128A15C5000A168A1588
:10163A000A200A128A15C6004608A7004508A6000D
:10164A004408A5004308A4006430F7000030F800FD
:10165A005008F900FA01F91BFA030A168A111E202A
:10166A000A128A15770883120313C7000130031080
:10167A00C70DFF3E031D3C2B0310470D483E013E9C
:10168A0084000A168A150A200A128A15C8000A1640
:10169A008A150A200A128A15C9000A168A150A200A
:1016AA000A128A15CA000A168A150A200A128A1507
:1016BA00CB004B08AB004A08AA004908A900480811
:1016CA00A8000A128A158B240A128A158312031398
:1016DA002708CF002608CE002508CD002408CC0014
:1016EA000A30F0000030F1005008F200F301F21B5A
:1016FA00F3030A168A15CA240A128A157008831275
:10170A000313C20001300310C20DFF3E031D882BD4
:10171A000310420D013E84000A168A150A200A1295
:10172A008A15C3000A168A150A200A128A15C400E5
:10173A000A168A150A200A128A15C5000A168A1577
:10174A000A200A128A15C6004608A7004508A600FC
:10175A004408A5004308A4004F08AB004E08AA009D
:10176A004D08A9004C08A8000A128A158B240A12EF
:10177A008A15831203132708C1002608C00025080A
:10178A00BF002408BE008A2C8A2C5D2C5008803A9F
:10179A00753E031CD12BD22B5D2C0A30F000003091
:1017AA00F1005008F200F301F21BF3030A168A153E
:1017BA00CA240A128A15700883120313C200013060
:1017CA000310C20DFF3E031DE52B0310420D013E1F
:1017DA0084000A168A150A200A128A15C3000A16F4
:1017EA008A150A200A128A15C4000A168A150A20BE
:1017FA000A128A15C5000A168A150A200A128A15BB
:10180A00C6004608A7004508A6004408A5004308E4
:10181A00A4000A30F7000030F8005008F900FA0175
:10182A00F91BFA030A168A111E200A128A1577086A
:10183A0083120313C70001300310C70DFF3E031DB7
:10184A00212C0310470D243E013E84000A168A15F6
:10185A000A200A128A15C8000A168A150A200A12CC
:10186A008A15C9000A168A150A200A128A15CA0098
:10187A000A168A150A200A128A15CB004B08AB00F1
:10188A004A08AA004908A9004808A8000A128A15A5
:10189A008B240A128A15831203132708C10026080B
:1018AA00C0002508BF002408BE008A2C8A2C5D2CA3
:1018BA005008C20001300310C20DFF3E031D602C08
:1018CA000310420D013E84000A168A150A200A12E4
:1018DA008A15C3000A168A150A200A128A15C40034
:1018EA000A168A150A200A128A15C5000A168A15C6
:1018FA000A200A128A15C6004608C1004508C00017
:10190A004408BF004308BE008A2C08008312031350
:10191A0027088039AC002C08B1002708AC002C0736
:10192A00AD002D08B700A61F9B2C9C2C9E2C3714AB
:10193A009E2C37080319A22CA32CB32C370A031D9B
:10194A00A72CA82CB12C0030A7000030A60000302C
:10195A00A5000030A400B12CA617BC2C0030A700AB
:10196A000030A6000030A5000030A400BC2C2B08D3
:10197A008039AC002C08B1062B08AC002C07AD004E
:10198A002D08B600AA1FCA2CCB2CCD2C3614CD2C70
:10199A0036080319D12CD22CE22C360A031DD62C78
:1019AA00D72CE02C0030AB000030AA000030A90090
:1019BA000030A800E02CAA17EB2C0030AB00003056
:1019CA00AA000030A9000030A800EB2C3608031941
:1019DA00EF2CF02CF62C3708031DF42CF52C002DD7
:1019EA00F62C0030A7000030A6000030A500003019
:1019FA00A400FF2FFF2F2408AC002C08F0002A08AF
:101A0A000A168A159F220A128A157108831203136D
:101A1A00BD007008BC003C08AC00AD01AE01AF01CE
:101A2A002F08B5002E08B4002D08B3002C08B20008
:101A3A003D08AC00AD01AE01AF012F08BB002E0876
:101A4A00BA002D08B9002C08B8002508AC002C08EB
:101A5A00F00029080A168A159F220A128A157108A7
:101A6A0083120313BD007008BC003C08AC00AD0132
:101A7A00AE01AF012C08B2072D0803110318013E6D
:101A8A000319482DB3072E0803110318013E031941
:101A9A004F2DB4072F0803110318013E0319562DC1
:101AAA00B5073D08AC00AD01AE01AF012C08B8077F
:101ABA002D0803110318013E0319642DB9072E08D6
:101ACA0003110318013E03196B2DBA072F080311DE
:101ADA000318013E0319722DBB072608AC002C0817
:101AEA00F00028080A168A159F220A128A15710818
:101AFA0083120313BD007008BC003C08AC00AD01A2
:101B0A00AE01AF012C08B2072D0803110318013EDC
:101B1A000319902DB3072E0803110318013E031968
:101B2A00972DB4072F0803110318013E03199E2DA0
:101B3A00B5073D08AC00AD01AE01AF012C08B807EE
:101B4A002D0803110318013E0319AC2DB9072E08FD
:101B5A0003110318013E0319B32DBA072F08031105
:101B6A000318013E0319BA2DBB070830AC00031055
:101B7A00B20DB30DB40DB50DAC0BBC2D2508AC00E0
:101B8A002C08F00028080A168A159F220A128A15BC
:101B9A00710883120313BD007008BC003C08AC0036
:101BAA003D08AD00AE01AF012C08B2072D080311A4
:101BBA000318013E0319E22DB3072E080311031877
:101BCA00013E0319E92DB4072F0803110318013E3A
:101BDA000319F02DB5072408AC002C08F0002908D9
:101BEA000A168A159F220A128A157108831203138C
:101BFA00BD007008BC003C08AC003D08AD00AE0159
:101C0A00AF012C08B2072D0803110318013E03196E
:101C1A000F2EB3072E0803110318013E0319162EBF
:101C2A00B4072F0803110318013E03191D2EB50727
:101C3A000830AC000310B20DB30DB40DB50DAC0BEA
:101C4A001F2E2408AC002C08F00028080A168A1552
:101C5A009F220A128A15710883120313BD007008A5
:101C6A00BC003C08AC003D08AD00AE01AF012C0839
:101C7A00B2072D0803110318013E0319452EB307B5
:101C8A002E0803110318013E03194C2EB4072F081E
:101C9A0003110318013E0319532EB5072508AC009A
:101CAA002C08F0002A080A168A159F220A128A1599
:101CBA00710883120313BD007008BC003C08AC0015
:101CCA003D08AD00AE01AF012C08B8072D0803117D
:101CDA000318013E0319722EB9072E0803110318BF
:101CEA00013E0319792EBA072F0803110318013E82
:101CFA000319802EBB072608AC002C08F00029081F
:101D0A000A168A159F220A128A157108831203136A
:101D1A00BD007008BC003C08AC003D08AD00AE0137
:101D2A00AF012C08B8072D0803110318013E031947
:101D3A009F2EB9072E0803110318013E0319A62E78
:101D4A00BA072F0803110318013E0319AD2EBB076A
:101D5A002608AC002C08F0002A080A168A159F22C9
:101D6A000A128A15710883120313BD007008BC0099
:101D7A003C08AC003D08AD00AE01AF0108300310CD
:101D8A00AC0DAD0DAE0DAF0DFF3E031DC42E2C08DC
:101D9A00B8072D0803110318013E0319D52EB907F8
:101DAA002E0803110318013E0319DC2EBA072F0867
:101DBA0003110318013E0319E32EBB073208AC00D6
:101DCA003308AD003408AE003508AF0018300310F0
:101DDA00AF0CAE0CAD0CAC0CFF3E031DEC2E2C0868
:101DEA00B8072D0803110318013E0319FD2EB90780
:101DFA002E0803110318013E0319042FBA072F08EE
:101E0A0003110318013E03190B2FBB070830AC005E
:101E1A000310B20DB30DB40DB50DAC0B0D2F370871
:101E2A003607AC00AD01AD0D2C08823EBC002D0872
:101E3A000318013EFF3EBD00412F0130AC000310E4
:101E4A00B80DB90DBA0DBB0DAC0B242FB51F2E2F33
:101E5A002F2F312F3814312F0130AC000310B20D5F
:101E6A00B30DB40DB50DAC0B332FFF30BC070318FF
:101E7A00BD0AFF30BD07412FBA1F442F452F222F1D
:101E8A00462FB601B51F4A2F4B2F6B2FFF30320555
:101E9A00AC00FF303305AD00FF303405AE007F30B3
:101EAA003505AF002F082E042D042C0403195E2FCC
:101EBA005F2F622FB601B60A6B2F381C652F662F6B
:101ECA006B2FB601B60A6B2F6B2F6B2F36080319CF
:101EDA006F2F702FA32F0130B8070030031801307D
:101EEA00B907003003180130BA070030031801306F
:101EFA00BB073B1C812F822FA32F3808AC0039085F
:101F0A00AD003A08AE003B08AF000130B0002F0D1B
:101F1A00AF0CAE0CAD0CAC0CB00B8C2F2F08BB0069
:101F2A002E08BA002D08B9002C08B8000130BC07E9
:101F3A000318BD0A0030BD07A32FA32F3D08803A1E
:101F4A00FF0080307F02031DAC2FFF303C02031CD0
:101F5A00AF2FB02FBB2F7F3083120313BB0080300B
:101F6A00BA000030B9000030B800F22F8312031310
:101F7A003D08803AFF0080307F02031DC62F0130E2
:101F8A003C020318C92FCA2FD62F0030831203131D
:101F9A00BB000030BA000030B9000030B800B1010F
:101FAA00F22F831203133C08AC002C08B700FF3051
:101FBA00B805FF30B9057F30BA050030BB05371CBC
:101FCA00E72FE82FEA2FBA17EA2F3708AC000310D9
:101FDA002C0CAD002D08BB00F22F3108AC002C08E8
:101FEA00BB043B08A7003A08A6003908A500380830
:061FFA00A400FF2F080007
:10201400F100F0013A3071020318112812281B282C
:1020240030307102031C172818281B28F001F00A0D
:102034001B28700C1D28080083120313A101F81F2C
:10204400242825282D28F709F809F70A0319F80A7E
:10205400A101A10A2D28FA1F302831283B28F909AB
:10206400FA09F90A0319FA0A0130FB007B08A106F0
:102074003B28A201A30177087804031942284328C6
:102084008028A001A00A522801300310F70DF80D92
:10209400FF3E031D47280130FB007B08A0075228A0
:1020A400F81F552856284628582858280130031068
:1020B400A20DA30DFF3E031D592878087A02031DC3
:1020C400652877087902031C68286928712877082D
:1020D400F9027808031CFA03FA0222147128013069
:1020E4000310F80CF70CFF3E031D72280130A00208
:1020F400031D7D287E28582880288028210803195C
:10210400842885288B28A209A309A20A0319A30AF3
:102114008B282308F8002208F7009028080070088C
:10212400F8007108F9007208FA007308FB00031044
:102134007A0D7B0DFC007C0883120313A50025088F
:10214400031DA528A628B0280030F3000030F200B3
:102154000030F1000030F000822982297408F80070
:102164007508F9007608FA007708FB0003107A0D69
:102174007B0DFC007C08A4002408031DC228C3288E
:10218400CD280030F3000030F2000030F1000030C0
:10219400F00082298229F217FF30F005FF30F105A3
:1021A400FF30F2050030F305F617FF30F405FF3079
:1021B400F505FF30F6050030F7050030A3000030C8
:1021C400A2000030A1000030A0007F30A502A030A2
:1021D4002407F8007808A5022030F8007808A40045
:1021E400F3280130F8000310A00DA10DA20DA30DDA
:1021F400F80BF52877087302031D0A297608720282
:10220400031D0A2975087102031D0A297408700246
:10221400031C0D290E291E297408F0027508031CDD
:10222400750FF1027608031C760FF2027708031C7F
:10223400770FF30220141E290130F8000310F00D6B
:10224400F10DF20DF30DF80B20290130A402031D4A
:102254002C292D29F328A51F302931295629250891
:10226400803A9F3E03183729382943290030F30068
:102274000030F2000030F1000030F00082298229A1
:10228400432901300310A30CA20CA10CA00CFF3EA7
:10229400031D44290130F8007808A507031D5329BC
:1022A400542943297929792920302502031C5B29E3
:1022B4005C2972290030F3000030F2000030F10094
:1022C4000030F0008229822972290130F8000310BD
:1022D400A00DA10DA20DA30DF80B69290130A502D3
:1022E4002508031D7629772967297929792923085F
:1022F400F3002208F2002108F1002008F0008229EE
:102304000800F83083160313890083160317880125
:102314000A168A15C9220A168A110C30F0000030F8
:10232400F1000A168A153B230A168A112830F00098
:102334000030F1000A168A153B230A168A1101306F
:10234400F0000030F1000A168A153B230A168A11A0
:102354008030F0000030F1000A168A153B230A167B
:102364008A11913083120313EA008030EB00AB3002
:102374000A128A150E200A168A1183160317880179
:10238400831603138515831203131F083F3940383E
:102394009F001F08C3390C389F001F1483160313B2
:1023A4009F179F121F12D629063083160313CE00DF
:1023B4001330CD00AD30CC00CC0BDE29CD0BDE29A3
:1023C400CE0BDE29831203139F14E8299F18EB29EF
:1023D400EC29E829ED291E0883160313CC00CD014E
:1023E4004C08CD00CC014C08F0004D08F100003041
:1023F400F11BFF30F200F30001300A168A159A250A
:102404000A168A11730883160313D3007208D200C4
:102414007108D1007008D0001E08CC00CD01CE0197
:10242400CF014F08F3004E08F2004D08F1004C08AC
:10243400F00001300A168A159A250A168A117308C3
:1024440083120313D5007208D4007108D3007008F6
:10245400D20083160313530883120313D90083167F
:102464000313520883120313D8008316031351086D
:1024740083120313D7008316031350088312031324
:10248400D6000A168A1144250A168A1183120313E8
:10249400550883160313D3008312031354088316B9
:1024A4000313D20083120313530883160313D100BA
:1024B40083120313520883160313D0003B30831294
:1024C4000313A700A030A6002830A5000B30A400F9
:1024D40083160313530883120313AB0083160313E9
:1024E400520883120313AA0083160313510883129C
:1024F4000313A90083160313500883120313A800BF
:102504000A128A158B240A168A11831203132708C8
:1025140083160313D30083120313260883160313AD
:10252400D20083120313250883160313D1008312E8
:102534000313240883160313D000423083120313B9
:10254400A700C830A6000030A5000030A400831600
:102554000313530883120313AB00831603135208A7
:1025640083120313AA00831603135108831203135F
:10257400A90083160313500883120313A8000A1238
:102584008A158B240A168A118312031327088316CB
:102594000313D30083120313260883160313D200F4
:1025A40083120313250883160313D1008312031324
:1025B400240883160313D000C030F0000030F1006B
:1025C4000A168A153B230A168A1183160313530825
:1025D40083120313ED0083160313520883120313AB
:1025E400EC0083160313510883120313EB008316C4
:1025F4000313500883120313EA00A5300A128A1544
:102604000E200A168A11C430F0000030F1000A16B8
:102614008A153B230A168A1183160313530883125F
:102624000313ED0083160313520883120313EC0003
:1026340083160313510883120313EB008316031349
:10264400500883120313EA00A5300A128A150E20DB
:102654000A168A11D629D6290A128A110028831249
:102664000313D1006E305102031C392B3A2B4B2C2F
:102674003F30A7000030A6000030A5000030A400C1
:102684006430F6000030F7005108C200C30142086C
:10269400F8004308F9000A168A1583230A168A11DA
:1026A400760883120313C40001300310C40DFF3EE7
:1026B400031D572B0310440D483E353E84000A1673
:1026C4008A150A200A168A11C5000A168A150A20D4
:1026D4000A168A11C6000A168A150A200A168A11D1
:1026E400C7000A168A150A200A168A11C800480863
:1026F400AB004708AA004608A9004508A8000A122A
:102704008A158B240A168A11831203132708D00012
:102714002608CF002508CE002408CD000A30F60094
:102724000030F7005108C200C3014208F200430818
:10273400F3006430F0000030F1000A168A15FA2222
:102744000A168A117108F9007008F8000A168A1529
:1027540083230A168A11760883120313C4000130F6
:102764000310C40DFF3E031DB22B0310440D243E81
:10277400353E84000A168A150A200A168A11C500F5
:102784000A168A150A200A168A11C6000A168A151C
:102794000A200A168A11C7000A168A150A200A1680
:1027A4008A11C8004808A7004708A6004608A500E3
:1027B4004508A4005008AB004F08AA004E08A90021
:1027C4004D08A8000A128A158B240A168A1183124E
:1027D40003132708CC002608CB002508CA002408C8
:1027E400C9000A30F0000030F1005108C200C301F2
:1027F4004208F2004308F3000A168A15FA220A1660
:102804008A11700883120313C40001300310C40D2D
:10281400FF3E031D082C0310440D353E84000A16A8
:102824008A150A200A168A11C5000A168A150A2072
:102834000A168A11C6000A168A150A200A168A116F
:10284400C7000A168A150A200A168A11C800480801
:10285400A7004708A6004608A5004508A4004C08A0
:10286400AB004B08AA004A08A9004908A8000A12AC
:102874008A158B240A168A11831203132708C100B0
:102884002608C0002508BF002408BE00432D432DA0
:10289400FF2C0B305102031C502C512CFF2C3F30C9
:1028A400A7000030A6000030A5000030A4000A30C4
:1028B400F6000030F7005108C200C3014208F800D6
:1028C4004308F9000A168A1583230A168A11760822
:1028D40083120313C40001300310C40DFF3E031D13
:1028E4006E2C0310440D243E353E84000A168A15CE
:1028F4000A200A168A11C5000A168A150A200A1621
:102904008A11C6000A168A150A200A168A11C700F7
:102914000A168A150A200A168A11C8004808AB004C
:102924004708AA004608A9004508A8000A128A1503
:102934008B240A168A11831203132708D000260851
:10294400CF002508CE002408CD000A30F000003066
:10295400F1005108C200C3014208F2004308F30029
:102964000A168A15FA220A168A11700883120313AA
:10297400C40001300310C40DFF3E031DBC2C031022
:10298400440D353E84000A168A150A200A168A1157
:10299400C5000A168A150A200A168A11C6000A16E4
:1029A4008A150A200A168A11C7000A168A150A20EF
:1029B4000A168A11C8004808A7004708A600460856
:1029C400A5004508A4005008AB004F08AA004E0813
:1029D400A9004D08A8000A128A158B240A168A1128
:1029E400831203132708C1002608C0002508BF006E
:1029F4002408BE00432D432DFF2C3F30A700003098
:102A0400A6000030A5000030A4005108C200013027
:102A14000310C20DFF3E031D0A2D0310420D353E67
:102A240084000A168A150A200A168A11C3000A1697
:102A34008A150A200A168A11C4000A168A150A2061
:102A44000A168A11C5000A168A150A200A168A115E
:102A5400C6004608AB004508AA004408A90043087C
:102A6400A8000A128A158B240A168A1183120313EA
:102A74002708C1002608C0002508BF002408BE009E
:102A8400432D08008312031355088039DA005A08CD
:102A9400E6005508DA005A07DB005B08E800D41F9B
:102AA400542D552D572D6814572D680803195B2D87
:102AB4005C2D6D2D680A031D602D612D6A2D00307B
:102AC400D5000030D4000030D3000030D2006A2D8D
:102AD400D417D501762D0030D5000030D400003055
:102AE400D3000030D200762D59088039DA005A0814
:102AF400E700670866060319802D812D832D66176C
:102B0400832D5908DA005A07DB005B08E700D81F59
:102B14008C2D8D2D8F2D67148F2D67080319932D00
:102B2400942DA52D670A031D982D992DA22D0030F3
:102B3400D9000030D8000030D7000030D600A22DD4
:102B4400D817D901AD2D0030D9000030D80000309D
:102B5400D7000030D600680867020318B22DB32DE1
:102B6400F92D661FB62DB72DBC2D8030DA005A081A
:102B7400E606BC2D6808DA005A08E9006708DA009E
:102B84005A08E8006908DA005A08E7005208DA002F
:102B94005A08E9005608DA005A08D2006908DA002F
:102BA4005A08D6005308DA005A08E9005708DA0030
:102BB4005A08D3006908DA005A08D7005408DA0022
:102BC4005A08E9005808DA005A08D4006908DA00FB
:102BD4005A08D8005508DA005A08E9005908DA00FA
:102BE4005A08D5006908DA005A08D900F92DE90114
:102BF4006808DA00DB01DA09DB09DA0A0319DB0AFF
:102C040067085A07DC005B0803185B0ADD005D08EF
:102C1400803AFF0080307F02031D122E1A305C02BE
:102C2400031C152E162E572E831203135508540415
:102C340053045204031D1F2E212E0130222E003076
:102C4400DA005A08E9000030D5000030D400003022
:102C5400D3000030D2006708DA005A08E800602E7A
:102C6400572E691C362E372E402E6908DA000310C1
:102C74005A0C0138DB005B08E900432E0310E90C11
:102C8400432E521C462E472E492EE917492E013059
:102C9400DA00550DD50CD40CD30CD20CDA0B4B2E18
:102CA4000130DA005A08E807572E83120313670825
:102CB4006802031C5E2E5F2E332E602E661B632E6D
:102CC400642EB32E6808031D682E692E732E0030FF
:102CD400D5000030D4000030D3000030D200FF2FE4
:102CE400FF2F5608D207570803110318013E031992
:102CF4007C2ED307580803110318013E0319832EB1
:102D0400D407590803110318013E03198A2ED50765
:102D1400551C8D2E8E2E7C2F691C912E922E9B2E4F
:102D24006908DA0003105A0C0138DB005B08E9007B
:102D34009E2E0310E90C9E2E521CA12EA22EA42E10
:102D4400E917A42E0130DA00550DD50CD40CD30CA0
:102D5400D20CDA0BA62E0130DA005A08E8077C2FD1
:102D64007C2F5508803AFF005908803A7F02031DE2
:102D7400C52E58085402031DC52E57085302031DBF
:102D8400C52E560852020318C82EC92E2F2FFF3005
:102D9400DA00FF30DB00FF30DC00FF30DD005608D6
:102DA400DE005708DF005808E0005908E100520926
:102DB400E2005309E3005409E4005509E500E20A7E
:102DC4000319E30A0319E40A0319E50A6208DE0792
:102DD40063080318630FEF2EF02EDF07640803184F
:102DE400640FF52EF62EE00765080318650AE1075F
:102DF4005E08DA075F0803185F0F012F022FDB0755
:102E040060080318600F072F082FDC0761080318F8
:102E1400610ADD075D08D5005C08D4005B08D300B7
:102E24005A08D2008030DA005A08E606E909E90AAD
:102E34006908031D1E2F1F2F3D2F0130D2070030BC
:102E440003180130D307003003180130D4070030D1
:102E540003180130D5073D2F3D2F5608D2025708DD
:102E6400031C570FD3025808031C580FD4025908E7
:102E7400031C590FD5025508540453045204031D6E
:102E8400442F452F762F6908031D492F4A2F762F8B
:102E94000030D5000030D4000030D3000030D20020
:102EA400FF2FFF2F762F0130DA000310D20DD30D40
:102EB400D40DD50DDA0B572FE91F612F622F632F25
:102EC4005214691C662F672F6A2F0314E90D6D2FA6
:102ED4000310E90D6D2F68080319712F722F762FD7
:102EE4000130E802762F762FD41F792F7A2F552FB1
:102EF4007C2F7C2FE701E91F802F812F932F6908F6
:102F04007F390319862F872F8A2FE701E70A932F2A
:102F1400521C8D2F8E2F932FE701E70A932F932FA7
:102F2400932F67080319972F982FCE2F0130D207BC
:102F3400003003180130D307003003180130D407E0
:102F4400003003180130D507551CA92FAA2FCE2F06
:102F54005208DA005308DB005408DC005508DD0091
:102F64000130DE005D0DDD0CDC0CDB0CDA0CDE0B5D
:102F7400B42F5D08D5005C08D4005B08D3005A0860
:102F8400D200680A0319C72FC82FCE2F0130DA00E8
:102F94005A08E807CE2FCE2F680A0319D22FD32F51
:102FA400D92F6808031DD72FD82FE92FD92F003028
:102FB400D5000030D4000030D3000030D2006808BF
:102FC400031DE52FE62FE92FE601E92FE92F681C01
:102FD400EC2FED2FEF2FD417F32F7F30DA005A08A0
:102FE400D4056808DA0003105A0CDB005B08D5002E
:102FF400E61FFD2FFE2FFF2FD5170800FF1B0A2801
:1030040083137F1883170008840A0319FF0A080032
:1030140018308A000408840A82070034003400341B
:1030240080343F34003400342034413400340034DC
:10303400C8344234003400347A34443400344034E4
:103044001C34463400345034C334473400342434FC
:10305400743449348034963418344B342034BC34BA
:10306400BE344C3428346B346E344E34F934023468
:1030740015345034EC347834AD346034CA34F2341A
:10308400493471340034003480343F34CD34CC348A
:10309400CC343D340A34D73423343C346F341234C2
:1030A40083343A341734B734D1343834AC34C53477
:1030B40027343734BD343734863435349534BF340B
:1030C400D63433347734CC342B3432345F347034E4
:1030D40089343034FF34E634DB342E340834E534B8
:1030E4003C341E3460344234A2340D340134003490
:1030F400003400340A3400340034003464340034BE
:1031040000340034E83403340034003410342734F9
:1031140000340034A0348634013400344034423462
:103124000F34003480349634983400340034E1345D
:10313400F53405340034CA349A343B345434653499
:103144006D3470346534723461347434753472346B
:1031540061343A34003428346E3475346C346C344D
:1031640029340034253433342E3431346634003475
:0631740025347334003421
:1034EE00F401F5017A2A701C7D2A7E2A842A72083C
:1034FE00F4070318F50A7308F50701300310F20DEF
:10350E00F30DFF3E031D852A01300310F10CF00C64
:10351E00FF3E031D8C2A70087104031D972A982AFA
:10352E007A2A992A7508F1007408F0009E2A08007C
:10353E00F800F401F5017008F200F3017208F600CC
:10354E007308F700AA2A781CAD2AAE2AB42A760888
:10355E00F4070318F50A7708F50701300310F60D86
:10356E00F70DFF3E031DB52A0310F80C7808031D56
:10357E00C12AC22AAA2AC32A7508F1007408F000CB
:10358E00C82A0800831203130910F401F5018914E7
:10359E00F401F501D22A0915F401F5010808803964
:1035AE00F000F1017008F2007108F3000911F40146
:1035BE00F50172087304031DE52AE62AD22A891042
:1035CE000F308316031388002030831203138800F4
:1035DE000915F401F5010911F401F501FF30831607
:1035EE00031388000800700871040319FF2A002BCA
:1035FE00352BF501F50A0F2B01300310F00DF10DEF
:10360E00FF3E031D042B0130F4007408F5070F2B49
:10361E00F11F122B132B032B152B152B7108730275
:10362E00031D1B2B70087202031C1E2B1F2B262B37
:10363E007008F2027108031CF303F302262B01300B
:10364E000310F10CF00CFF3E031D272B0130F50289
:10365E00031D322B332B152B352B352B7308F10015
:10366E007208F0003A2B0800831203130910F601BA
:10367E00F7018914F601F701442B0915F601F7013C
:10368E0008088039F200F3017208F4007308F5009F
:10369E000911F601F7010915F601F7010911F601F5
:1036AE00F70174087504031D5D2B5E2B442B8910E6
:1036BE000F308316031388007008831203138800DB
:1036CE000915F601F7010911F601F7017008F2006C
:1036DE0003300310F20DFF3E031D702B0310720D0D
:1036EE0088000915F601F7010911F601F701FF30FF
:1036FE008316031388000800FB01FC01760877048B
:10370E0003198A2B8B2BC82BFD01FD0A9A2B013036
:10371E000310F60DF70DFF3E031D8F2B0130FA003F
:10372E007A08FD079A2BF71F9D2B9E2B8E2BA02B15
:10373E00A02B01300310FB0DFC0DFF3E031DA12B32
:10374E0077087902031DAD2B76087802031CB02B87
:10375E00B12BB92B7608F8027708031CF903F9028E
:10376E007B14B92B01300310F70CF60CFF3E031D32
:10377E00BA2B0130FD02031DC52BC62BA02BC82B67
:10378E00C82B7C08F7007B08F600CD2B0800003014
:10379E007005F80000307105F90080307205FA00EE
:1037AE007F307305FB007B087A0479047804031DCF
:1037BE00E12BE22BEA2B0030F3000030F200003058
:1037CE00F1000030F00000307405F800003075058F
:1037DE00F90080307605FA007F307705FB007B0814
:1037EE007A0479047804031DFD2BFE2B062C003081
:1037FE00F7000030F6000030F5000030F4007708D6
:10380E007306031D142C76087206031D142C7508FE
:10381E007106031D142C740870060319172C182C2E
:10382E001A2C03101D2C03141D2C1D2C0800803087
:10383E0083160313A306270883120313D5008316DA
:10384E000313260883120313D400831603132508CB
:10385E0083120313D3008316031324088312031356
:10386E00D20083160313230883120313D900831681
:10387E000313220883120313D8008316031321089F
:10388E0083120313D7008316031320088312031326
:10389E00D6000A168A1144250A168A1583120313B6
:1038AE00550883160313A3008312031354088316BB
:1038BE000313A20083120313530883160313A100EC
:1038CE0083120313520883160313A0006E2C0800F4
:1038DE0073087204710470040319762C772CC02CB3
:1038EE00F901F90A882C0130F8000310F00DF10DE2
:1038FE00F20DF30DF80B7C2C0130F8007808F90767
:10390E00882CF31F8B2C8C2C7A2C8E2C8E2C7308DF
:10391E007702031D9C2C72087602031D9C2C7108E5
:10392E007502031D9C2C70087402031C9F2CA02C86
:10393E00AF2C7008F4027108031C710FF5027208A7
:10394E00031C720FF6027308031C730FF702AF2CE1
:10395E0001300310F30CF20CF10CF00CFF3E031DC2
:10396E00B02C0130F902031DBD2CBE2C8E2CC02CA8
:10397E00C02C7708F3007608F2007508F100740881
:10398E00F000C92C0800F601F31FCE2CCF2CD72C3B
:10399E00F209F309F20A0319F30AF601F60AD72C13
:1039AE00F11FDA2CDB2CE12CF009F109F00A0319D6
:1039BE00F10AE12C700871040319E62CE72C1C2D7A
:1039CE00F501F50AF62C01300310F00DF10DFF3E56
:1039DE00031DEB2C0130F4007408F507F62CF11FD3
:1039EE00F92CFA2CEA2CFC2CFC2C71087302031D0A
:1039FE00022D70087202031C052D062D0D2D700868
:103A0E00F2027108031CF303F3020D2D01300310B3
:103A1E00F10CF00CFF3E031D0E2D0130F502031DBF
:103A2E00192D1A2DFC2C1C2D1C2D76080319202D5A
:103A3E00212D272DF209F309F20A0319F30A272D76
:103A4E007308F1007208F0002C2D08000030FC0005
:103A5E000030FB000030FA000030F90073087204E9
:103A6E007104700403193C2D3D2D902DFD01FD0AAE
:103A7E004E2D0130F8000310F00DF10DF20DF30D87
:103A8E00F80B422D0130F8007808FD074E2DF31F7C
:103A9E00512D522D402D542D542D0130F800031070
:103AAE00F90DFA0DFB0DFC0DF80B562D7308770270
:103ABE00031D6B2D72087602031D6B2D71087502A6
:103ACE00031D6B2D70087402031C6E2D6F2D7F2D40
:103ADE007008F4027108031C710FF5027208031CC2
:103AEE00720FF6027308031C730FF70279147F2D01
:103AFE0001300310F30CF20CF10CF00CFF3E031D21
:103B0E00802D0130FD02031D8D2D8E2D542D902DF7
:103B1E00902D7C08F3007B08F2007A08F1007908FA
:103B2E00F000992D0800F800780803199F2DA02D9C
:103B3E00B42DF31FA32DA42DB42D7009FA00710915
:103B4E00FB007209FC007309FD00FA0A0319FB0A57
:103B5E000319FC0A0319FD0ABC2D7308FD00720837
:103B6E00FC007108FB007008FA00730872047104FF
:103B7E007004031DC32DC42DCE2D0030F300003074
:103B8E00F2000030F1000030F0005B2E5B2E96301C
:103B9E00F4007408F900E12D0130F4007408F907FF
:103BAE0001300310FD0CFC0CFB0CFA0CFF3E031D48
:103BBE00D82DE12DFE307D05031DE62DE72DD32DED
:103BCE00042E042E0130F4007408F9070130FA07B0
:103BDE00003003180130FB07003003180130FC07DA
:103BEE00003003180130FD0701300310FD0CFC0CF2
:103BFE00FB0CFA0CFF3E031DFC2DFF307D05031D53
:103C0E00092E0A2EE92D182E182E0130F902013038
:103C1E00F4000310FA0DFB0DFC0DFD0DF40B102E30
:103C2E00182EFC1B1B2E1C2E232E0230790203187D
:103C3E00212E222E0C2E232E7918262E272E2F2EB5
:103C4E00FF30FA05FF30FB057F30FC05FF30FD0528
:103C5E000310F90C7908F400F501F601F70118309C
:103C6E000310F40DF50DF60DF70DFF3E031D372E67
:103C7E007408FA047508FB047608FC047708FD0442
:103C8E00780803194B2E4C2E522EF31F4F2E502E0A
:103C9E00522EFD17522E7D08F3007C08F2007B0891
:103CAE00F1007A08F0005B2E0800003070058312D8
:103CBE000313A00000307105A10080307205A20030
:103CCE007F307305A3002308220421042004031D62
:103CDE00712E722E7A2E0030F3000030F20000307A
:103CEE00F1000030F00000307405A00000307505C2
:103CFE00A10080307605A2007F307705A30023084F
:103D0E00220421042004031D8D2E8E2E972E0030AA
:103D1E00F7000030F6000030F5000030F400972E6A
:103D2E00F31F9A2E9B2ECD2E0030A0000030A10046
:103D3E000030A2008030A3007009A4007109A50014
:103D4E007209A6007309A700A40A0319A50A03198C
:103D5E00A60A0319A70A2408A00725080318250F89
:103D6E00B92EBA2EA10726080318260FBF2EC02E75
:103D7E00A20727080318270AA3072308F30022081F
:103D8E00F2002108F1002008F000CD2EF71FD02EF2
:103D9E00D12E032F0030A0000030A1000030A20071
:103DAE008030A3007409A4007509A5007609A60049
:103DBE007709A700A40A0319A50A0319A60A03196D
:103DCE00A70A2408A00725080318250FEF2EF02EAA
:103DDE00A10726080318260FF52EF62EA207270890
:103DEE000318270AA3072308F7002208F600210864
:103DFE00F5002008F400032F8030F3068030F7061C
:103E0E0077087302031D152F76087202031D152FF6
:103E1E0075087102031D152F740870020318182FF0
:103E2E00192F1B2F03101E2F03141E2F1E2F0800D9
:103E3E007008F8007108F9007208FA000310790D85
:103E4E007A0DFB007B0883120313A5002508031DC2
:103E5E00312F322F3C2F0030F3000030F2000030B3
:103E6E00F1000030F000FF2FFF2F7408F8007508E6
:103E7E00F9007608FA000310790D7A0DFB007B0825
:103E8E00A4002408031D4C2F4D2F572F0030F30094
:103E9E000030F2000030F1000030F000FF2FFF2F55
:103EAE00F117FF30F005FF30F1050030F205F51780
:103EBE00FF30F405FF30F5050030F6050030A300A5
:103ECE000030A2000030A1000030A0007F30A5021B
:103EDE0098302407F8007808A5021830F800780802
:103EEE00A400792F0130F8000310A00DA10DA20D32
:103EFE00A30DF80B7B2F76087202031D8C2F75080D
:103F0E007102031D8C2F74087002031C8F2F902FCB
:103F1E009C2F7408F0027508031C750FF1027608C9
:103F2E00031C760AF20220149C2F01300310F00DB0
:103F3E00F10DF20DFF3E031D9D2F0130A402031D56
:103F4E00A92FAA2F792FA51FAD2FAE2FD32F25085E
:103F5E00803A973E0318B42FB52FC02F0030F300D0
:103F6E000030F2000030F1000030F000FF2FFF2F84
:103F7E00C02F01300310A30CA20CA10CA00CFF3E0D
:103F8E00031DC12F0130F8007808A507031DD02F9F
:103F9E00D12FC02FF62FF62F18302502031CD82F45
:103FAE00D92FEF2F0030F3000030F2000030F10077
:103FBE000030F000FF2FFF2FEF2F0130F80003101D
:103FCE00A00DA10DA20DA30DF80BE62F0130A50239
:103FDE002508031DF32FF42FE42FF62FF62F2308B9
:103FEE00F3002208F2002108F1002008F000FF2F54
:023FFE000800B9
:02400E00E5F3D8
:00000001FF
