:020000040000FA
:060000000A128A11FC2F18
:100A0400F001F101F201F301831603178912891130
:100A1400091009110912FF30831603138600FF30F1
:100A240088008113F7308700FF309500192D831655
:100A3400031381120116811183120313861A232DC5
:100A4400242D7A2D83160313011181140110123001
:100A5400831203138100F001F1017108803AFF0051
:100A640082307F02031D382D0E307002031C3B2D93
:100A74003C2D4D2D192D192D4D2D72087304031D78
:100A8400442D452D492D8312031387154D2D8312B3
:100A9400031387114D2D0B1D502D512D3F2D522D1C
:100AA40012308312031381000B1172087304031DA7
:100AB4005C2D5D2D622D0130F2000030F300652DB8
:100AC400F201F301652D0130F0070318F10A00303B
:100AD400F1077108803AFF0082307F02031D742DF4
:100AE4000E307002031C772D782D4D2D192D192DE4
:100AF400061A7D2D7E2DD42D831603130111811426
:100B040001148230831203138100F001F101710892
:100B1400803AFF0081307F02031D922DF430700271
:100B2400031C952D962DA72D192D192DA72D72086F
:100B34007304031D9E2D9F2DA32D8312031387156C
:100B4400A72D831203138711A72D0B1DAA2DAB2DDF
:100B5400992DAC2D82308312031381000B1172087E
:100B64007304031DB62DB72DBC2D0130F2000030E7
:100B7400F300BF2DF201F301BF2D0130F00703187C
:100B8400F10A0030F1077108803AFF0081307F02DA
:100B9400031DCE2DF4307002031CD12DD22DA72DB0
:100BA400192D192D0619D72DD82D2E2E8316031382
:100BB4000111811401147030831203138100F001B8
:100BC400F1017108803AFF0081307F02031DEC2D92
:100BD400B3307002031CEF2DF02D012E192D192DA9
:100BE400012E72087304031DF82DF92DFD2D8312B7
:100BF40003138715012E831203138711012E0B1D76
:100C0400042E052EF32D062E70308312031381005B
:100C14000B1172087304031D102E112E162E0130B1
:100C2400F2000030F300192EF201F301192E013005
:100C3400F0070318F10A0030F1077108803AFF0049
:100C440081307F02031D282EB3307002031C2B2E2B
:100C54002C2E012E192D192D8618312E322E882E68
:100C6400831603130111811401145D3083120313DD
:100C74008100F001F1017108803AFF0081307F02A8
:100C8400031D462E81307002031C492E4A2E5B2E12
:100C9400192D192D5B2E72087304031D522E532E29
:100CA400572E8312031387155B2E831203138711A8
:100CB4005B2E0B1D5E2E5F2E4D2E602E5D3083123B
:100CC400031381000B1172087304031D6A2E6B2E2B
:100CD400702E0130F2000030F300732EF201F301A4
:100CE400732E0130F0070318F10A0030F107710880
:100CF400803AFF0081307F02031D822E8130700212
:100D0400031C852E862E5B2E192D192D06188B2E6D
:100D14008C2EE22E831603130111811401144A3020
:100D2400831203138100F001F1017108803AFF007E
:100D340081307F02031DA02E59307002031CA32EA4
:100D4400A42EB52E192D192DB52E72087304031D6A
:100D5400AC2EAD2EB12E831203138715B52E83123C
:100D640003138711B52E0B1DB82EB92EA72EBA2E3C
:100D74004A308312031381000B1172087304031D9C
:100D8400C42EC52ECA2E0130F2000030F300CD2E41
:100D9400F201F301CD2E0130F0070318F10A0030FF
:100DA400F1077108803AFF0081307F02031DDC2EB9
:100DB40059307002031CDF2EE02EB52E192D192D8B
:100DC400881BE52EE62E3C2F831603130115811094
:100DD4000110A230831203138100F001F1017108A4
:100DE400803AFF0081307F02031DFA2E4D307002DD
:100DF400031CFD2EFE2E0F2F192D192D0F2F7208F7
:100E04007304031D062F072F0B2F8312031387155B
:100E14000F2F8312031387110F2F0B1D122F132F64
:100E2400012F142FA2308312031381000B117208B7
:100E34007304031D1E2F1F2F242F0130F2000030D6
:100E4400F300272FF201F301272F0130F0070318D5
:100E5400F10A0030F1077108803AFF0081307F0207
:100E6400031D362F4D307002031C392F3A2F0F2FDC
:100E7400192D192D081B3F2F402F962F831603136E
:100E84000111811401142B30831203138100F0012A
:100E9400F1017108803AFF0081307F02031D542F55
:100EA40026307002031C572F582F692F192D192D26
:100EB400692F72087304031D602F612F652F83123D
:100EC40003138715692F831203138711692F0B1DD1
:100ED4006C2F6D2F5B2F6E2F2B3083120313810029
:100EE4000B1172087304031D782F792F7E2F0130A4
:100EF400F2000030F300812FF201F301812F013061
:100F0400F0070318F10A0030F1077108803AFF0076
:100F140081307F02031D902F26307002031C932F13
:100F2400942F692F192D192D881A992F9A2F192D5D
:100F34008316031301118114011412308312031355
:100F44008100F001F1017108803AFF0081307F02D5
:100F5400031DAE2F07307002031CB12FB22FC32F15
:100F6400192D192DC32F72087304031DBA2FBB2F1B
:100F7400BF2F831203138715C32F83120313871103
:100F8400C32F0B1DC62FC72FB52FC82F12308312A6
:100F9400031381000B1172087304031DD22FD32F86
:100FA400D82F0130F2000030F300DB2FF201F301FF
:100FB400DB2F0130F0070318F10A0030F107710844
:100FC400803AFF0081307F02031DEA2F0730700250
:100FD400031CED2FEE2FC32F192D192D192D192DAB
:100FE400192D192D192D192D192D192D192D0A12F7
:0C0FF4008A11002883010A128A11022DC4
:02400E00F1FFC0
:00000001FF
